{
  "contractName": "LendingAndBorrowing",
  "abi": [
    {
      "inputs": [
        {
          "internalType": "address",
          "name": "_token",
          "type": "address"
        }
      ],
      "stateMutability": "nonpayable",
      "type": "constructor"
    },
    {
      "anonymous": false,
      "inputs": [
        {
          "indexed": false,
          "internalType": "address",
          "name": "sender",
          "type": "address"
        },
        {
          "indexed": false,
          "internalType": "uint256",
          "name": "amountInDollars",
          "type": "uint256"
        },
        {
          "indexed": false,
          "internalType": "uint256",
          "name": "totalAmountAvailableForBorrowInDollars",
          "type": "uint256"
        },
        {
          "indexed": false,
          "internalType": "bool",
          "name": "userPresent",
          "type": "bool"
        },
        {
          "indexed": false,
          "internalType": "int256",
          "name": "userIndex",
          "type": "int256"
        },
        {
          "indexed": false,
          "internalType": "address[]",
          "name": "borrowers",
          "type": "address[]"
        },
        {
          "indexed": false,
          "internalType": "uint256",
          "name": "currentUserTokenBorrowedAmount",
          "type": "uint256"
        }
      ],
      "name": "Borrow",
      "type": "event"
    },
    {
      "anonymous": false,
      "inputs": [
        {
          "indexed": false,
          "internalType": "address",
          "name": "sender",
          "type": "address"
        },
        {
          "indexed": false,
          "internalType": "uint256",
          "name": "amountInDollars",
          "type": "uint256"
        },
        {
          "indexed": false,
          "internalType": "uint256",
          "name": "totalAmountAvailableForBorrowInDollars",
          "type": "uint256"
        }
      ],
      "name": "BorrowTesting1",
      "type": "event"
    },
    {
      "anonymous": false,
      "inputs": [
        {
          "indexed": false,
          "internalType": "address",
          "name": "sender",
          "type": "address"
        },
        {
          "indexed": false,
          "internalType": "uint256",
          "name": "balance",
          "type": "uint256"
        },
        {
          "indexed": false,
          "internalType": "uint256",
          "name": "amount",
          "type": "uint256"
        }
      ],
      "name": "BorrowTesting2",
      "type": "event"
    },
    {
      "anonymous": false,
      "inputs": [
        {
          "indexed": true,
          "internalType": "address",
          "name": "previousOwner",
          "type": "address"
        },
        {
          "indexed": true,
          "internalType": "address",
          "name": "newOwner",
          "type": "address"
        }
      ],
      "name": "OwnershipTransferred",
      "type": "event"
    },
    {
      "anonymous": false,
      "inputs": [
        {
          "indexed": false,
          "internalType": "address",
          "name": "sender",
          "type": "address"
        },
        {
          "indexed": false,
          "internalType": "int256",
          "name": "index",
          "type": "int256"
        },
        {
          "indexed": false,
          "internalType": "uint256",
          "name": "tokenAmountBorrowed",
          "type": "uint256"
        },
        {
          "indexed": false,
          "internalType": "uint256",
          "name": "totalTokenAmountToCollectFromUser",
          "type": "uint256"
        },
        {
          "indexed": false,
          "internalType": "address[]",
          "name": "borrowers",
          "type": "address[]"
        }
      ],
      "name": "PayDebt",
      "type": "event"
    },
    {
      "anonymous": false,
      "inputs": [
        {
          "indexed": false,
          "internalType": "address",
          "name": "sender",
          "type": "address"
        },
        {
          "indexed": false,
          "internalType": "int256",
          "name": "index",
          "type": "int256"
        }
      ],
      "name": "RepayTesting1",
      "type": "event"
    },
    {
      "anonymous": false,
      "inputs": [
        {
          "indexed": false,
          "internalType": "address",
          "name": "sender",
          "type": "address"
        },
        {
          "indexed": false,
          "internalType": "uint256",
          "name": "tokenBorrowed",
          "type": "uint256"
        }
      ],
      "name": "RepayTesting2",
      "type": "event"
    },
    {
      "anonymous": false,
      "inputs": [
        {
          "indexed": false,
          "internalType": "address",
          "name": "sender",
          "type": "address"
        },
        {
          "indexed": false,
          "internalType": "address[]",
          "name": "lenders",
          "type": "address[]"
        },
        {
          "indexed": false,
          "internalType": "uint256",
          "name": "currentUserTokenLentAmount",
          "type": "uint256"
        }
      ],
      "name": "Supply",
      "type": "event"
    },
    {
      "anonymous": false,
      "inputs": [
        {
          "indexed": false,
          "internalType": "address",
          "name": "sender",
          "type": "address"
        },
        {
          "indexed": false,
          "internalType": "uint256",
          "name": "amount",
          "type": "uint256"
        },
        {
          "indexed": false,
          "internalType": "uint256",
          "name": "tokenToWithdrawInDollars",
          "type": "uint256"
        },
        {
          "indexed": false,
          "internalType": "uint256",
          "name": "availableToWithdraw",
          "type": "uint256"
        },
        {
          "indexed": false,
          "internalType": "uint256",
          "name": "totalAmountLentInDollars",
          "type": "uint256"
        },
        {
          "indexed": false,
          "internalType": "uint256",
          "name": "larTokenToRemove",
          "type": "uint256"
        }
      ],
      "name": "Withdraw",
      "type": "event"
    },
    {
      "anonymous": false,
      "inputs": [
        {
          "indexed": false,
          "internalType": "address",
          "name": "sender",
          "type": "address"
        },
        {
          "indexed": false,
          "internalType": "uint256",
          "name": "tokentoWithdrawInDollars",
          "type": "uint256"
        },
        {
          "indexed": false,
          "internalType": "uint256",
          "name": "availableToWithdraw",
          "type": "uint256"
        }
      ],
      "name": "WithdrawTesting",
      "type": "event"
    },
    {
      "inputs": [
        {
          "internalType": "uint256",
          "name": "",
          "type": "uint256"
        }
      ],
      "name": "borrowers",
      "outputs": [
        {
          "internalType": "address",
          "name": "",
          "type": "address"
        }
      ],
      "stateMutability": "view",
      "type": "function"
    },
    {
      "inputs": [],
      "name": "larToken",
      "outputs": [
        {
          "internalType": "contract IERC20",
          "name": "",
          "type": "address"
        }
      ],
      "stateMutability": "view",
      "type": "function"
    },
    {
      "inputs": [
        {
          "internalType": "uint256",
          "name": "",
          "type": "uint256"
        }
      ],
      "name": "lenders",
      "outputs": [
        {
          "internalType": "address",
          "name": "",
          "type": "address"
        }
      ],
      "stateMutability": "view",
      "type": "function"
    },
    {
      "inputs": [],
      "name": "noOfTokensBorrowed",
      "outputs": [
        {
          "internalType": "uint256",
          "name": "",
          "type": "uint256"
        }
      ],
      "stateMutability": "view",
      "type": "function"
    },
    {
      "inputs": [],
      "name": "noOfTokensLent",
      "outputs": [
        {
          "internalType": "uint256",
          "name": "",
          "type": "uint256"
        }
      ],
      "stateMutability": "view",
      "type": "function"
    },
    {
      "inputs": [],
      "name": "owner",
      "outputs": [
        {
          "internalType": "address",
          "name": "",
          "type": "address"
        }
      ],
      "stateMutability": "view",
      "type": "function"
    },
    {
      "inputs": [],
      "name": "renounceOwnership",
      "outputs": [],
      "stateMutability": "nonpayable",
      "type": "function"
    },
    {
      "inputs": [
        {
          "internalType": "address",
          "name": "",
          "type": "address"
        }
      ],
      "name": "tokenToPriceFeed",
      "outputs": [
        {
          "internalType": "address",
          "name": "",
          "type": "address"
        }
      ],
      "stateMutability": "view",
      "type": "function"
    },
    {
      "inputs": [
        {
          "internalType": "uint256",
          "name": "",
          "type": "uint256"
        },
        {
          "internalType": "address",
          "name": "",
          "type": "address"
        }
      ],
      "name": "tokensBorrowed",
      "outputs": [
        {
          "internalType": "address",
          "name": "",
          "type": "address"
        }
      ],
      "stateMutability": "view",
      "type": "function"
    },
    {
      "inputs": [
        {
          "internalType": "address",
          "name": "",
          "type": "address"
        },
        {
          "internalType": "address",
          "name": "",
          "type": "address"
        }
      ],
      "name": "tokensBorrowedAmount",
      "outputs": [
        {
          "internalType": "uint256",
          "name": "",
          "type": "uint256"
        }
      ],
      "stateMutability": "view",
      "type": "function"
    },
    {
      "inputs": [
        {
          "internalType": "uint256",
          "name": "",
          "type": "uint256"
        }
      ],
      "name": "tokensForBorrowing",
      "outputs": [
        {
          "internalType": "address",
          "name": "tokenAddress",
          "type": "address"
        },
        {
          "internalType": "uint256",
          "name": "LTV",
          "type": "uint256"
        },
        {
          "internalType": "uint256",
          "name": "stableRate",
          "type": "uint256"
        },
        {
          "internalType": "string",
          "name": "name",
          "type": "string"
        }
      ],
      "stateMutability": "view",
      "type": "function"
    },
    {
      "inputs": [
        {
          "internalType": "uint256",
          "name": "",
          "type": "uint256"
        }
      ],
      "name": "tokensForLending",
      "outputs": [
        {
          "internalType": "address",
          "name": "tokenAddress",
          "type": "address"
        },
        {
          "internalType": "uint256",
          "name": "LTV",
          "type": "uint256"
        },
        {
          "internalType": "uint256",
          "name": "stableRate",
          "type": "uint256"
        },
        {
          "internalType": "string",
          "name": "name",
          "type": "string"
        }
      ],
      "stateMutability": "view",
      "type": "function"
    },
    {
      "inputs": [
        {
          "internalType": "uint256",
          "name": "",
          "type": "uint256"
        },
        {
          "internalType": "address",
          "name": "",
          "type": "address"
        }
      ],
      "name": "tokensLent",
      "outputs": [
        {
          "internalType": "address",
          "name": "",
          "type": "address"
        }
      ],
      "stateMutability": "view",
      "type": "function"
    },
    {
      "inputs": [
        {
          "internalType": "address",
          "name": "",
          "type": "address"
        },
        {
          "internalType": "address",
          "name": "",
          "type": "address"
        }
      ],
      "name": "tokensLentAmount",
      "outputs": [
        {
          "internalType": "uint256",
          "name": "",
          "type": "uint256"
        }
      ],
      "stateMutability": "view",
      "type": "function"
    },
    {
      "inputs": [
        {
          "internalType": "address",
          "name": "newOwner",
          "type": "address"
        }
      ],
      "name": "transferOwnership",
      "outputs": [],
      "stateMutability": "nonpayable",
      "type": "function"
    },
    {
      "inputs": [
        {
          "internalType": "string",
          "name": "name",
          "type": "string"
        },
        {
          "internalType": "address",
          "name": "tokenAddress",
          "type": "address"
        },
        {
          "internalType": "uint256",
          "name": "LTV",
          "type": "uint256"
        },
        {
          "internalType": "uint256",
          "name": "borrowStableRate",
          "type": "uint256"
        }
      ],
      "name": "addTokensForLending",
      "outputs": [],
      "stateMutability": "nonpayable",
      "type": "function"
    },
    {
      "inputs": [
        {
          "internalType": "string",
          "name": "name",
          "type": "string"
        },
        {
          "internalType": "address",
          "name": "tokenAddress",
          "type": "address"
        },
        {
          "internalType": "uint256",
          "name": "LTV",
          "type": "uint256"
        },
        {
          "internalType": "uint256",
          "name": "borrowStableRate",
          "type": "uint256"
        }
      ],
      "name": "addTokensForBorrowing",
      "outputs": [],
      "stateMutability": "nonpayable",
      "type": "function"
    },
    {
      "inputs": [
        {
          "internalType": "address",
          "name": "tokenAddress",
          "type": "address"
        },
        {
          "internalType": "address",
          "name": "tokenToUsdPriceFeed",
          "type": "address"
        }
      ],
      "name": "addTokenToPriceFeedMapping",
      "outputs": [],
      "stateMutability": "nonpayable",
      "type": "function"
    },
    {
      "inputs": [],
      "name": "getLendersArray",
      "outputs": [
        {
          "internalType": "address[]",
          "name": "",
          "type": "address[]"
        }
      ],
      "stateMutability": "view",
      "type": "function"
    },
    {
      "inputs": [],
      "name": "getBorrowersArray",
      "outputs": [
        {
          "internalType": "address[]",
          "name": "",
          "type": "address[]"
        }
      ],
      "stateMutability": "view",
      "type": "function"
    },
    {
      "inputs": [],
      "name": "getTokensForLendingArray",
      "outputs": [
        {
          "components": [
            {
              "internalType": "address",
              "name": "tokenAddress",
              "type": "address"
            },
            {
              "internalType": "uint256",
              "name": "LTV",
              "type": "uint256"
            },
            {
              "internalType": "uint256",
              "name": "stableRate",
              "type": "uint256"
            },
            {
              "internalType": "string",
              "name": "name",
              "type": "string"
            }
          ],
          "internalType": "struct LendingAndBorrowing.Token[]",
          "name": "",
          "type": "tuple[]"
        }
      ],
      "stateMutability": "view",
      "type": "function"
    },
    {
      "inputs": [],
      "name": "getTokensForBorrowingArray",
      "outputs": [
        {
          "components": [
            {
              "internalType": "address",
              "name": "tokenAddress",
              "type": "address"
            },
            {
              "internalType": "uint256",
              "name": "LTV",
              "type": "uint256"
            },
            {
              "internalType": "uint256",
              "name": "stableRate",
              "type": "uint256"
            },
            {
              "internalType": "string",
              "name": "name",
              "type": "string"
            }
          ],
          "internalType": "struct LendingAndBorrowing.Token[]",
          "name": "",
          "type": "tuple[]"
        }
      ],
      "stateMutability": "view",
      "type": "function"
    },
    {
      "inputs": [
        {
          "internalType": "address",
          "name": "tokenAddress",
          "type": "address"
        },
        {
          "internalType": "uint256",
          "name": "amount",
          "type": "uint256"
        }
      ],
      "name": "lend",
      "outputs": [],
      "stateMutability": "payable",
      "type": "function"
    },
    {
      "inputs": [
        {
          "internalType": "uint256",
          "name": "amount",
          "type": "uint256"
        },
        {
          "internalType": "address",
          "name": "tokenAddress",
          "type": "address"
        }
      ],
      "name": "borrow",
      "outputs": [],
      "stateMutability": "nonpayable",
      "type": "function"
    },
    {
      "inputs": [
        {
          "internalType": "address",
          "name": "tokenAddress",
          "type": "address"
        },
        {
          "internalType": "uint256",
          "name": "amount",
          "type": "uint256"
        }
      ],
      "name": "payDebt",
      "outputs": [],
      "stateMutability": "nonpayable",
      "type": "function"
    },
    {
      "inputs": [
        {
          "internalType": "address",
          "name": "tokenAddress",
          "type": "address"
        },
        {
          "internalType": "uint256",
          "name": "amount",
          "type": "uint256"
        }
      ],
      "name": "withdraw",
      "outputs": [],
      "stateMutability": "nonpayable",
      "type": "function"
    },
    {
      "inputs": [
        {
          "internalType": "address",
          "name": "user",
          "type": "address"
        }
      ],
      "name": "getTokenAvailableToWithdraw",
      "outputs": [
        {
          "internalType": "uint256",
          "name": "",
          "type": "uint256"
        }
      ],
      "stateMutability": "view",
      "type": "function"
    },
    {
      "inputs": [
        {
          "internalType": "address",
          "name": "user",
          "type": "address"
        }
      ],
      "name": "getRemainingCollateral",
      "outputs": [
        {
          "internalType": "uint256",
          "name": "",
          "type": "uint256"
        }
      ],
      "stateMutability": "view",
      "type": "function"
    },
    {
      "inputs": [
        {
          "internalType": "address",
          "name": "user",
          "type": "address"
        }
      ],
      "name": "getTotalAmountBorrowedInDollars",
      "outputs": [
        {
          "internalType": "uint256",
          "name": "",
          "type": "uint256"
        }
      ],
      "stateMutability": "view",
      "type": "function"
    },
    {
      "inputs": [
        {
          "internalType": "address",
          "name": "user",
          "type": "address"
        }
      ],
      "name": "getTotalAmountLentInDollars",
      "outputs": [
        {
          "internalType": "uint256",
          "name": "",
          "type": "uint256"
        }
      ],
      "stateMutability": "view",
      "type": "function"
    },
    {
      "inputs": [
        {
          "internalType": "address",
          "name": "tokenAddress",
          "type": "address"
        },
        {
          "internalType": "uint256",
          "name": "tokenBorrowed",
          "type": "uint256"
        }
      ],
      "name": "interest",
      "outputs": [
        {
          "internalType": "uint256",
          "name": "",
          "type": "uint256"
        }
      ],
      "stateMutability": "view",
      "type": "function"
    },
    {
      "inputs": [
        {
          "internalType": "address",
          "name": "tokenAddress",
          "type": "address"
        }
      ],
      "name": "getTokenFrom",
      "outputs": [
        {
          "components": [
            {
              "internalType": "address",
              "name": "tokenAddress",
              "type": "address"
            },
            {
              "internalType": "uint256",
              "name": "LTV",
              "type": "uint256"
            },
            {
              "internalType": "uint256",
              "name": "stableRate",
              "type": "uint256"
            },
            {
              "internalType": "string",
              "name": "name",
              "type": "string"
            }
          ],
          "internalType": "struct LendingAndBorrowing.Token",
          "name": "",
          "type": "tuple"
        }
      ],
      "stateMutability": "view",
      "type": "function"
    },
    {
      "inputs": [
        {
          "internalType": "address",
          "name": "user",
          "type": "address"
        }
      ],
      "name": "getUserTotalAmountAvailableForBorrowInDollars",
      "outputs": [
        {
          "internalType": "uint256",
          "name": "",
          "type": "uint256"
        }
      ],
      "stateMutability": "view",
      "type": "function"
    },
    {
      "inputs": [
        {
          "internalType": "uint256",
          "name": "amount",
          "type": "uint256"
        },
        {
          "internalType": "address",
          "name": "tokenAddress",
          "type": "address"
        }
      ],
      "name": "getAmountInDollars",
      "outputs": [
        {
          "internalType": "uint256",
          "name": "",
          "type": "uint256"
        }
      ],
      "stateMutability": "view",
      "type": "function"
    },
    {
      "inputs": [
        {
          "internalType": "address",
          "name": "tokenAddress",
          "type": "address"
        }
      ],
      "name": "oneTokenEqualsHowManyDollars",
      "outputs": [
        {
          "internalType": "uint256",
          "name": "",
          "type": "uint256"
        },
        {
          "internalType": "uint256",
          "name": "",
          "type": "uint256"
        }
      ],
      "stateMutability": "view",
      "type": "function"
    },
    {
      "inputs": [
        {
          "internalType": "address",
          "name": "currentUser",
          "type": "address"
        },
        {
          "internalType": "address",
          "name": "tokenAddress",
          "type": "address"
        },
        {
          "internalType": "uint256",
          "name": "noOfTokenslentOrBorrowed",
          "type": "uint256"
        },
        {
          "internalType": "string",
          "name": "_tokensLentOrBorrowed",
          "type": "string"
        }
      ],
      "name": "hasLentOrBorrowedToken",
      "outputs": [
        {
          "internalType": "bool",
          "name": "",
          "type": "bool"
        }
      ],
      "stateMutability": "view",
      "type": "function"
    },
    {
      "inputs": [
        {
          "internalType": "address",
          "name": "tokenAddres",
          "type": "address"
        }
      ],
      "name": "getTotalTokenSupplied",
      "outputs": [
        {
          "internalType": "uint256",
          "name": "",
          "type": "uint256"
        }
      ],
      "stateMutability": "view",
      "type": "function"
    },
    {
      "inputs": [
        {
          "internalType": "address",
          "name": "tokenAddress",
          "type": "address"
        }
      ],
      "name": "getTotalTokenBorrowed",
      "outputs": [
        {
          "internalType": "uint256",
          "name": "",
          "type": "uint256"
        }
      ],
      "stateMutability": "view",
      "type": "function"
    }
  ],
  "bytecode": "0x60806040526000600b556000600c5534801561001a57600080fd5b50604051613d4b380380613d4b833981016040819052610039916100d4565b61005b61004d640100000000610080810204565b640100000000610084810204565b600a8054600160a060020a031916600160a060020a0392909216919091179055610104565b3390565b60008054600160a060020a03838116600160a060020a0319831681178455604051919092169283917f8be0079c531659141344cd1fd0a4f28419497f9722a3daafe3b4186f6b6457e09190a35050565b6000602082840312156100e657600080fd5b8151600160a060020a03811681146100fd57600080fd5b9392505050565b613c38806101136000396000f3fe6080604052600436106101b85760e060020a600035046306254c6a81146101bd57806308ae7fc2146101f057806311f4f5d3146102205780631419f093146102405780631818dd0b146102605780631c9e52241461028257806327e8e184146102a45780633c9d5093146102dc578063447007fd146102fe5780634b3fd1481461031e5780634fa9f5a41461033e578063541d83381461036e5780636352b56814610384578063715018a6146103a457806374fd0ce0146103b95780637924d93f146104075780637b9ec997146104275780638078f22c146104475780638cf1806b1461047d5780638da5cb5b14610492578063929eea21146104a7578063a2fb342d146104c7578063a7772b97146104da578063a8b74152146104fa578063aac0bf9614610532578063ab56ee6614610552578063b3d16f8d14610572578063b9f09bb814610592578063c4543b67146105a8578063cd927409146105c8578063d7a9a25c14610609578063f2fde38b1461061e578063f3fef3a31461063e578063fb24af7f1461065e578063fc757b881461067e578063fdc8070e146106ab578063fe726f80146106e0578063ff2f446514610700575b600080fd5b3480156101c957600080fd5b506101dd6101d83660046132d9565b610720565b6040519081526020015b60405180910390f35b3480156101fc57600080fd5b5061021061020b3660046132f4565b6107aa565b6040516101e7949392919061335d565b34801561022c57600080fd5b506101dd61023b36600461338b565b61087c565b34801561024c57600080fd5b506101dd61025b3660046132d9565b6108af565b34801561026c57600080fd5b5061028061027b36600461338b565b610934565b005b34801561028e57600080fd5b50610297610c39565b6040516101e791906133f1565b3480156102b057600080fd5b506101dd6102bf366004613456565b600360209081526000928352604080842090915290825290205481565b3480156102e857600080fd5b506102f1610d55565b6040516101e79190613489565b34801561030a57600080fd5b506102106103193660046132f4565b610db7565b34801561032a57600080fd5b506102806103393660046134d5565b610dc7565b34801561034a57600080fd5b5061035e61035936600461359f565b611318565b60405190151581526020016101e7565b34801561037a57600080fd5b506101dd600c5481565b34801561039057600080fd5b506101dd61039f3660046132d9565b611494565b3480156103b057600080fd5b506102806114e2565b3480156103c557600080fd5b506103fa6103d43660046134d5565b6006602090815260009283526040808420909152908252902054600160a060020a031681565b6040516101e79190613606565b34801561041357600080fd5b506103fa6104223660046132f4565b6114f6565b34801561043357600080fd5b506101dd6104423660046132d9565b611520565b34801561045357600080fd5b506103fa6104623660046132d9565b600760205260009081526040902054600160a060020a031681565b34801561048957600080fd5b506102f16118c9565b34801561049e57600080fd5b506103fa611929565b3480156104b357600080fd5b506103fa6104c23660046132f4565b611938565b6102806104d536600461338b565b611948565b3480156104e657600080fd5b506101dd6104f53660046132d9565b611da2565b34801561050657600080fd5b506101dd610515366004613456565b600460209081526000928352604080842090915290825290205481565b34801561053e57600080fd5b506101dd61054d3660046132d9565b611e41565b34801561055e57600080fd5b506101dd61056d3660046132d9565b611ef0565b34801561057e57600080fd5b5061028061058d366004613456565b611f72565b34801561059e57600080fd5b506101dd600b5481565b3480156105b457600080fd5b506102806105c336600461361a565b611fa8565b3480156105d457600080fd5b506103fa6105e33660046134d5565b6005602090815260009283526040808420909152908252902054600160a060020a031681565b34801561061557600080fd5b506102976121e9565b34801561062a57600080fd5b506102806106393660046132d9565b6122fc565b34801561064a57600080fd5b5061028061065936600461338b565b61237b565b34801561066a57600080fd5b506101dd6106793660046134d5565b612862565b34801561068a57600080fd5b5061069e6106993660046132d9565b6128a0565b6040516101e79190613676565b3480156106b757600080fd5b506106cb6106c63660046132d9565b612a09565b604080519283526020830191909152016101e7565b3480156106ec57600080fd5b50600a546103fa90600160a060020a031681565b34801561070c57600080fd5b5061028061071b36600461361a565b612b10565b6001546000908190156107a45760005b6001548110156107a257600160a060020a0384166000908152600360205260408120600180549192918490811061076957610769613689565b6000918252602080832090910154600160a060020a0316835282019290925260400190205461079890836136bd565b9150600101610730565b505b92915050565b600881815481106107ba57600080fd5b60009182526020909120600490910201805460018201546002830154600384018054600160a060020a039094169550919390929091906107f9906136d0565b80601f0160208091040260200160405190810160405280929190818152602001828054610825906136d0565b80156108725780601f1061084757610100808354040283529160200191610872565b820191906000526020600020905b81548152906001019060200180831161085557829003601f168201915b5050505050905084565b6000670de0b6b3a7640000610890846128a0565b6040015161089e908461370e565b6108a89190613725565b9392505050565b600080805b600c548110156107a2576000818152600660209081526040808320600160a060020a03808916855292529091205416801561092b57600160a060020a03808216600090815260046020908152604080832093891683529290529081205461091b9083612862565b905061092781856136bd565b9350505b506001016108b4565b6000811161094157600080fd5b60006109aa600280548060200260200160405190810160405280929190818152602001828054801561099c57602002820191906000526020600020905b8154600160a060020a0316815260019091019060200180831161097e575b503394935050612d3d915050565b90507ffd17bd4279d0fe7ef2675b6b6e8966ee4b2dbdc635a963c22487d11f2252fd2633826040516109dd92919061374b565b60405180910390a160008112156109f357600080fd5b600160a060020a0383166000908152600460209081526040808320338085529252918290205491517f39c49093e2def1aebe4cebf2fbebfd37c089d9231d17ecd15319230e499d735891610a4891849061374b565b60405180910390a160008111610a5d57600080fd5b83600160a060020a0381166323b872dd3330610a79858761087c565b610a8390896136bd565b6040518463ffffffff1660e060020a028152600401610aa493929190613764565b6020604051808303816000875af1158015610ac3573d6000803e3d6000fd5b505050506040513d601f19601f82011682018060405250810190610ae79190613788565b50600160a060020a038516600090815260046020908152604080832033845290915281208054869290610b1b9084906137aa565b90915550610b2a9050336108af565b600003610bdf5760028054610b41906001906137aa565b81548110610b5157610b51613689565b60009182526020909120015460028054600160a060020a039092169185908110610b7d57610b7d613689565b9060005260206000200160006101000a815481600160a060020a030219169083600160a060020a031602179055506002805480610bbc57610bbc6137bd565b60008281526020902081016000199081018054600160a060020a03191690550190555b7ff17f5805b2095d17ffe834aff3fc2eeff114bfbc250e98f248783f8d34d40042338484610c0d898761087c565b610c1790896136bd565b6002604051610c2a959493929190613821565b60405180910390a15050505050565b60606008805480602002602001604051908101604052809291908181526020016000905b82821015610d4c57600084815260209081902060408051608081018252600486029092018054600160a060020a03168352600181015493830193909352600283015490820152600382018054919291606084019190610cbb906136d0565b80601f0160208091040260200160405190810160405280929190818152602001828054610ce7906136d0565b8015610d345780601f10610d0957610100808354040283529160200191610d34565b820191906000526020600020905b815481529060010190602001808311610d1757829003601f168201915b50505050508152505081526020019060010190610c5d565b50505050905090565b60606001805480602002602001604051908101604052809291908181526020018280548015610dad57602002820191906000526020600020905b8154600160a060020a03168152600190910190602001808311610d8f575b5050505050905090565b600981815481106107ba57600080fd5b610ee5816009805480602002602001604051908101604052809291908181526020016000905b82821015610edc57600084815260209081902060408051608081018252600486029092018054600160a060020a03168352600181015493830193909352600283015490820152600382018054919291606084019190610e4b906136d0565b80601f0160208091040260200160405190810160405280929190818152602001828054610e77906136d0565b8015610ec45780601f10610e9957610100808354040283529160200191610ec4565b820191906000526020600020905b815481529060010190602001808311610ea757829003601f168201915b50505050508152505081526020019060010190610ded565b50505050612d96565b610eee57600080fd5b60008211610efb57600080fd5b6000610f0633611520565b90506000610f148484612862565b90507f9855d8af0b8c5c7af990f62dff1fc3aeaded940bb30b8de4b0015eab8bcc7dde338284604051610f4993929190613860565b60405180910390a181811115610f5e57600080fd5b60405160e060020a6370a0823102815283907f1533b7359743566892d312c1ebe1047dfae70511d2db64634f80e3e8e2147354903390600160a060020a038416906370a0823190610fb3903090600401613606565b602060405180830381865afa158015610fd0573d6000803e3d6000fd5b505050506040513d601f19601f82011682018060405250810190610ff49190613881565b8760405161100493929190613860565b60405180910390a160405160e060020a6370a082310281528590600160a060020a038316906370a082319061103d903090600401613606565b602060405180830381865afa15801561105a573d6000803e3d6000fd5b505050506040513d601f19601f8201168201806040525081019061107e9190613881565b10156110cc5760405160e560020a62461bcd0281526020600482015260126024820152607160020a7124b739bab33334b1b4b2b73a102a37b5b2b70260448201526064015b60405180910390fd5b60405160e060020a63a9059cbb028152600160a060020a0382169063a9059cbb906110fd903390899060040161374b565b6020604051808303816000875af115801561111c573d6000803e3d6000fd5b505050506040513d601f19601f820116820180604052508101906111409190613788565b506000806111ab600280548060200260200160405190810160405280929190818152602001828054801561119d57602002820191906000526020600020905b8154600160a060020a0316815260019091019060200180831161117f575b503394935050612dff915050565b9150915081156111ea576111e586888360405180604001604052806009815260200160b860020a68626f72726f7765727302815250612e6f565b6112a7565b60028054600181019091557f405787fa12a823e0f2b7631cc41b3ba8828b3321ca811111fa75cd3aa3bb5ace018054600160a060020a03191633908117909155600160a060020a0387166000908152600460209081526040808320938352929052908120889055600c80548892600692909190826112678361389a565b9091555081526020808201929092526040908101600090812033825290925290208054600160a060020a031916600160a060020a03929092169190911790555b600160a060020a0386166000908152600460209081526040808320338085529252918290205491517f699548a5535b752f15032eb2be1672b2e5e62ddc5d461d4edb5a9321d7cbd25292611307929188918a9188918891600291906138b3565b60405180910390a150505050505050565b600082156114885760405160b260020a691d1bdad95b9cd3195b9d026020820152602a0160405160208183030381529060405280519060200120826040516020016113639190613903565b60405160208183030381529060405280519060200120036113d45760005b600b548110156113ce576000818152600560209081526040808320600160a060020a03808b168552925290912054811690861681036113c55760019250505061148c565b50600101611381565b50611488565b604051609260020a6d1d1bdad95b9cd09bdc9c9bddd959026020820152602e01604051602081830303815290604052805190602001208260405160200161141b9190613903565b60405160208183030381529060405280519060200120036114885760005b600c54811015611486576000818152600660209081526040808320600160a060020a03808b1685529252909120548116908616810361147d5760019250505061148c565b50600101611439565b505b5060005b949350505050565b6000806114a0836108af565b9050600081156114ba576114b384611e41565b90506114c6565b6114c384611da2565b90505b818110156114d8575060009392505050565b61148c82826137aa565b6114ea613178565b6114f460006131da565b565b6002818154811061150657600080fd5b600091825260209091200154600160a060020a0316905081565b60008080805b6001548110156117045760006001828154811061154557611545613689565b600091825260209091200154600160a060020a039081169150861681036116fb5760005b6008548110156116f95760006008828154811061158857611588613689565b90600052602060002090600402016040518060800160405290816000820160009054906101000a9004600160a060020a0316600160a060020a0316600160a060020a0316815260200160018201548152602001600282015481526020016003820180546115f4906136d0565b80601f0160208091040260200160405190810160405280929190818152602001828054611620906136d0565b801561166d5780601f106116425761010080835404028352916020019161166d565b820191906000526020600020905b81548152906001019060200180831161165057829003601f168201915b5050509190925250508151600160a060020a039081166000908152600360209081526040808320938e168352929052908120548351939450929091506116b4908390612862565b90506000670de0b6b3a76400008460200151836116d1919061370e565b6116db9190613725565b90506116e7818a6136bd565b98505060019093019250611569915050565b505b50600101611526565b5060005b6002548110156118be5760006002828154811061172757611727613689565b600091825260209091200154600160a060020a039081169150861681036118b55760005b6009548110156118b35760006009828154811061176a5761176a613689565b90600052602060002090600402016040518060800160405290816000820160009054906101000a9004600160a060020a0316600160a060020a0316600160a060020a0316815260200160018201548152602001600282015481526020016003820180546117d6906136d0565b80601f0160208091040260200160405190810160405280929190818152602001828054611802906136d0565b801561184f5780601f106118245761010080835404028352916020019161184f565b820191906000526020600020905b81548152906001019060200180831161183257829003601f168201915b5050509190925250508151600160a060020a039081166000908152600460209081526040808320938e16835292905290812054835193945092909150611896908390612862565b90506118a281886136bd565b9650506001909201915061174b9050565b505b50600101611708565b5061148c81836137aa565b60606002805480602002602001604051908101604052809291908181526020018280548015610dad57602002820191906000526020600020908154600160a060020a03168152600190910190602001808311610d8f575050505050905090565b600054600160a060020a031690565b6001818154811061150657600080fd5b611a5d826008805480602002602001604051908101604052809291908181526020016000905b82821015610edc57600084815260209081902060408051608081018252600486029092018054600160a060020a031683526001810154938301939093526002830154908201526003820180549192916060840191906119cc906136d0565b80601f01602080910402602001604051908101604052809291908181526020018280546119f8906136d0565b8015611a455780601f10611a1a57610100808354040283529160200191611a45565b820191906000526020600020905b815481529060010190602001808311611a2857829003601f168201915b5050505050815250508152602001906001019061196e565b611a6657600080fd5b60008111611a7357600080fd5b60405160e060020a6370a0823102815282908290600160a060020a038316906370a0823190611aa6903390600401613606565b602060405180830381865afa158015611ac3573d6000803e3d6000fd5b505050506040513d601f19601f82011682018060405250810190611ae79190613881565b1015611af257600080fd5b60405160e060020a6323b872dd028152600160a060020a038216906323b872dd90611b2590339030908790600401613764565b6020604051808303816000875af1158015611b44573d6000803e3d6000fd5b505050506040513d601f19601f82011682018060405250810190611b689190613788565b50600080611bd1600180548060200260200160405190810160405280929190818152602001828054801561119d57602002820191906000526020600020908154600160a060020a0316815260019091019060200180831161117f57503394935050612dff915050565b915091508115611c0e57611c0985858360405180604001604052806007815260200160c860020a666c656e6465727302815250612e6f565b611cca565b600180548082019091557fb10e2d527612073b26eecdfd717e6a320cf44b4afac2b0732d9fcbe2b7fa0cf6018054600160a060020a03191633908117909155600160a060020a0386166000908152600360209081526040808320938352929052908120859055600b8054879260059290919082611c8a8361389a565b9091555081526020808201929092526040908101600090812033825290925290208054600160a060020a031916600160a060020a03929092169190911790555b600a54600160a060020a031663a9059cbb33611ce68789612862565b6040518363ffffffff1660e060020a028152600401611d0692919061374b565b6020604051808303816000875af1158015611d25573d6000803e3d6000fd5b505050506040513d601f19601f82011682018060405250810190611d499190613788565b50600160a060020a0385166000908152600360209081526040808320338085529252918290205491517fbb33ffe04605a99e7885b3013bcc050161d1906b3611f09fed70a0c61e1f03de92610c2a92916001919061391f565b600080805b600b548110156107a2576000818152600560209081526040808320600160a060020a0380891685529252909120541615611e39576000818152600560209081526040808320600160a060020a038881168086528285528386205490911680865260038552838620918652908452918420549252909190611e28908390612862565b9050611e3481856136bd565b935050505b600101611da7565b600080805b600b548110156107a2576000818152600560209081526040808320600160a060020a038089168552925290912054168015611ee757600160a060020a038082166000908152600360209081526040808320938916835292905290812054611ead9083612862565b9050670de0b6b3a7640000611ec1836128a0565b60200151611ecf908361370e565b611ed99190613725565b611ee390856136bd565b9350505b50600101611e46565b6002546000908190156107a45760005b6002548110156107a257600160a060020a03841660009081526004602052604081206002805491929184908110611f3957611f39613689565b6000918252602080832090910154600160a060020a03168352820192909252604001902054611f6890836136bd565b9150600101611f00565b611f7a613178565b600160a060020a0391821660009081526007602052604090208054600160a060020a03191691909216179055565b611fb0613178565b6000604051806080016040528085600160a060020a031681526020018481526020018381526020018681525090506120fc816008805480602002602001604051908101604052809291908181526020016000905b828210156120f357600084815260209081902060408051608081018252600486029092018054600160a060020a03168352600181015493830193909352600283015490820152600382018054919291606084019190612062906136d0565b80601f016020809104026020016040519081016040528092919081815260200182805461208e906136d0565b80156120db5780601f106120b0576101008083540402835291602001916120db565b820191906000526020600020905b8154815290600101906020018083116120be57829003601f168201915b50505050508152505081526020019060010190612004565b5050505061322a565b6121e2576008805460018101825560009190915281517ff3f7a9fe364faab93b216da50a3214154f22a0a2b415b23a84c8169e8b636ee360049092029182018054600160a060020a031916600160a060020a0390921691909117815560208301517ff3f7a9fe364faab93b216da50a3214154f22a0a2b415b23a84c8169e8b636ee483015560408301517ff3f7a9fe364faab93b216da50a3214154f22a0a2b415b23a84c8169e8b636ee5830155606083015183927ff3f7a9fe364faab93b216da50a3214154f22a0a2b415b23a84c8169e8b636ee601906121de90826139cb565b5050505b5050505050565b60606009805480602002602001604051908101604052809291908181526020016000905b82821015610d4c57600084815260209081902060408051608081018252600486029092018054600160a060020a0316835260018101549383019390935260028301549082015260038201805491929160608401919061226b906136d0565b80601f0160208091040260200160405190810160405280929190818152602001828054612297906136d0565b80156122e45780601f106122b9576101008083540402835291602001916122e4565b820191906000526020600020905b8154815290600101906020018083116122c757829003601f168201915b5050505050815250508152602001906001019061220d565b612304613178565b600160a060020a03811661236f5760405160e560020a62461bcd02815260206004820152602660248201527f4f776e61626c653a206e6577206f776e657220697320746865207a65726f2061604482015260d060020a656464726573730260648201526084016110c3565b612378816131da565b50565b6000811161238857600080fd5b60006123ef600180548060200260200160405190810160405280929190818152602001828054801561099c57602002820191906000526020600020908154600160a060020a0316815260019091019060200180831161097e57503394935050612d3d915050565b12156123fa57600080fd5b8160006124078383612862565b9050600061241433611494565b9050600061242186610720565b9050600061242e87611ef0565b905061243a81836137aa565b86111561244657600080fd5b7fa3f1253c66c67d41b745dd1caff0e52d3fb3aefdf8dd746b6af0c96d1f29e3bc33858560405161247993929190613860565b60405180910390a18284111561248e57600080fd5b600061249a8789612862565b600a5460405160e060020a6370a08231028152919250600091600160a060020a03909116906370a08231906124d3903390600401613606565b602060405180830381865afa1580156124f0573d6000803e3d6000fd5b505050506040513d601f19601f820116820180604052508101906125149190613881565b905080821161259d57600a5460405160e060020a6323b872dd028152600160a060020a03909116906323b872dd9061255490339030908790600401613764565b6020604051808303816000875af1158015612573573d6000803e3d6000fd5b505050506040513d601f19601f820116820180604052508101906125979190613788565b50612619565b600a5460405160e060020a6323b872dd028152600160a060020a03909116906323b872dd906125d490339030908690600401613764565b6020604051808303816000875af11580156125f3573d6000803e3d6000fd5b505050506040513d601f19601f820116820180604052508101906126179190613788565b505b60405160e060020a63a9059cbb028152600160a060020a0388169063a9059cbb9061264a9033908c9060040161374b565b6020604051808303816000875af1158015612669573d6000803e3d6000fd5b505050506040513d601f19601f8201168201806040525081019061268d9190613788565b50600160a060020a0389166000908152600360209081526040808320338452909152812080548a92906126c19084906137aa565b909155507fb7ee00edafdb5db3a1b52a5789a6b562eb48268842d113dbfe860b6f86e5f5959050338988886126f584611da2565b60408051600160a060020a0390961686526020860194909452928401919091526060830152608082015260a0810184905260c00160405180910390a1600061273c33611da2565b1161285757600180546127509082906137aa565b8154811061276057612760613689565b9060005260206000200160009054906101000a9004600160a060020a031660016127e5600180548060200260200160405190810160405280929190818152602001828054801561099c57602002820191906000526020600020908154600160a060020a0316815260019091019060200180831161097e57503394935050612d3d915050565b815481106127f5576127f5613689565b9060005260206000200160006101000a815481600160a060020a030219169083600160a060020a031602179055506001805480612834576128346137bd565b60008281526020902081016000199081018054600160a060020a03191690550190555b505050505050505050565b600080600061287084612a09565b9092509050600061288282600a613b6a565b61288c848861370e565b6128969190613725565b9695505050505050565b6128a861328c565b6128b061328c565b60005b6009548110156107a25783600160a060020a0316600982815481106128da576128da613689565b6000918252602090912060049091020154600160a060020a031603612a01576009818154811061290c5761290c613689565b90600052602060002090600402016040518060800160405290816000820160009054906101000a9004600160a060020a0316600160a060020a0316600160a060020a031681526020016001820154815260200160028201548152602001600382018054612978906136d0565b80601f01602080910402602001604051908101604052809291908181526020018280546129a4906136d0565b80156129f15780601f106129c6576101008083540402835291602001916129f1565b820191906000526020600020905b8154815290600101906020018083116129d457829003601f168201915b50505050508152505091506107a2565b6001016128b3565b600160a060020a0380821660009081526007602052604080822054815160e260020a633fabe5a302815291519293849391169182918491839163feaf968c9160048082019260a0929091908290030181865afa158015612a6d573d6000803e3d6000fd5b505050506040513d601f19601f82011682018060405250810190612a919190613b8d565b505050915050600082600160a060020a031663313ce5676040518163ffffffff1660e060020a028152600401602060405180830381865afa158015612ada573d6000803e3d6000fd5b505050506040513d601f19601f82011682018060405250810190612afe9190613bdf565b919760ff909216965090945050505050565b612b18613178565b6000604051806080016040528085600160a060020a03168152602001848152602001838152602001868152509050612c5b816009805480602002602001604051908101604052809291908181526020016000905b828210156120f357600084815260209081902060408051608081018252600486029092018054600160a060020a03168352600181015493830193909352600283015490820152600382018054919291606084019190612bca906136d0565b80601f0160208091040260200160405190810160405280929190818152602001828054612bf6906136d0565b8015612c435780601f10612c1857610100808354040283529160200191612c43565b820191906000526020600020905b815481529060010190602001808311612c2657829003601f168201915b50505050508152505081526020019060010190612b6c565b6121e2576009805460018101825560009190915281517f6e1540171b6c0c960b71a7020d9f60077f6af931a8bbf590da0223dacf75c7af60049092029182018054600160a060020a031916600160a060020a0390921691909117815560208301517f6e1540171b6c0c960b71a7020d9f60077f6af931a8bbf590da0223dacf75c7b083015560408301517f6e1540171b6c0c960b71a7020d9f60077f6af931a8bbf590da0223dacf75c7b1830155606083015183927f6e1540171b6c0c960b71a7020d9f60077f6af931a8bbf590da0223dacf75c7b201906121de90826139cb565b6000805b8251811015612d8b57828181518110612d5c57612d5c613689565b6020026020010151600160a060020a031684600160a060020a031603612d835790506107a4565b600101612d41565b506000199392505050565b805160009015612df65760005b8251811015612df45783600160a060020a0316838281518110612dc857612dc8613689565b602002602001015160000151600160a060020a031603612dec5760019150506107a4565b600101612da3565b505b50600092915050565b600080600083511115612e5f5760005b8351811015612e5d57838181518110612e2a57612e2a613689565b6020026020010151600160a060020a031685600160a060020a031603612e5557600192509050612e68565b600101612e0f565b505b50600090506000195b9250929050565b60405160c860020a666c656e646572730260208201526027016040516020818303038152906040528051906020012081604051602001612eaf9190613903565b6040516020818303038152906040528051906020012003612ff157600060018381548110612edf57612edf613689565b9060005260206000200160009054906101000a9004600160a060020a03169050612f328186600b546040518060400160405280600a815260200160b260020a691d1bdad95b9cd3195b9d02815250611318565b15612f7957600160a060020a03808616600090815260036020908152604080832093851683529290529081208054869290612f6e9084906136bd565b90915550612feb9050565b600b8054869160059160009182612f8f8361389a565b90915550815260208082019290925260409081016000908120600160a060020a038681168084529185528383208054600160a060020a031916968216969096179095559389168152600383528181209381529290915290208490555b50613172565b60405160b860020a68626f72726f7765727302602082015260290160405160208183030381529060405280519060200120816040516020016130339190613903565b60405160208183030381529060405280519060200120036131725760006002838154811061306357613063613689565b9060005260206000200160009054906101000a9004600160a060020a031690506130ba8186600c546040518060400160405280600e8152602001609260020a6d1d1bdad95b9cd09bdc9c9bddd95902815250611318565b1561310157600160a060020a038086166000908152600460209081526040808320938516835292905290812080548692906130f69084906136bd565b909155506121e29050565b600c80548691600691600091826131178361389a565b90915550815260208082019290925260409081016000908120600160a060020a039586168083529084528282208054600160a060020a0319169587169590951790945593881684526004825280842092845291905290208390555b50505050565b33613181611929565b600160a060020a0316146114f45760405160e560020a62461bcd02815260206004820181905260248201527f4f776e61626c653a2063616c6c6572206973206e6f7420746865206f776e657260448201526064016110c3565b60008054600160a060020a03838116600160a060020a0319831681178455604051919092169283917f8be0079c531659141344cd1fd0a4f28419497f9722a3daafe3b4186f6b6457e09190a35050565b805160009015612df65760005b8251811015612df4578360000151600160a060020a031683828151811061326057613260613689565b602002602001015160000151600160a060020a0316036132845760019150506107a4565b600101613237565b60405180608001604052806000600160a060020a031681526020016000815260200160008152602001606081525090565b8035600160a060020a03811681146132d457600080fd5b919050565b6000602082840312156132eb57600080fd5b6108a8826132bd565b60006020828403121561330657600080fd5b5035919050565b60005b83811015613328578181015183820152602001613310565b50506000910152565b6000815180845261334981602086016020860161330d565b601f01601f19169290920160200192915050565b600160a060020a03851681528360208201528260408201526080606082015260006128966080830184613331565b6000806040838503121561339e57600080fd5b6133a7836132bd565b946020939093013593505050565b600160a060020a0381511682526020810151602083015260408101516040830152600060608201516080606085015261148c6080850182613331565b6000602082016020835280845180835260408501915060406020820286010192506020860160005b8281101561344a57603f198786030184526134358583516133b5565b94506020938401939190910190600101613419565b50929695505050505050565b6000806040838503121561346957600080fd5b613472836132bd565b9150613480602084016132bd565b90509250929050565b602080825282518282018190526000918401906040840190835b818110156134ca578351600160a060020a03168352602093840193909201916001016134a3565b509095945050505050565b600080604083850312156134e857600080fd5b82359150613480602084016132bd565b60e060020a634e487b710260009081526041600452602490fd5b600082601f83011261352357600080fd5b81356001604060020a0381111561353c5761353c6134f8565b604051601f8201601f19908116603f011681016001604060020a038111828210171561356a5761356a6134f8565b60405281815283820160200185101561358257600080fd5b816020850160208301376000918101602001919091529392505050565b600080600080608085870312156135b557600080fd5b6135be856132bd565b93506135cc602086016132bd565b92506040850135915060608501356001604060020a038111156135ee57600080fd5b6135fa87828801613512565b91505092959194509250565b600160a060020a0391909116815260200190565b6000806000806080858703121561363057600080fd5b84356001604060020a0381111561364657600080fd5b61365287828801613512565b945050613661602086016132bd565b93969395505050506040820135916060013590565b6020815260006108a860208301846133b5565b60e060020a634e487b710260009081526032600452602490fd5b60e060020a634e487b710260009081526011600452602490fd5b808201808211156107a4576107a46136a3565b6002810460018216806136e457607f821691505b6020821081036137085760e060020a634e487b710260009081526022600452602490fd5b50919050565b80820281158282048414176107a4576107a46136a3565b6000826137465760e060020a634e487b710260009081526012600452602490fd5b500490565b600160a060020a03929092168252602082015260400190565b600160a060020a039384168152919092166020820152604081019190915260600190565b60006020828403121561379a57600080fd5b815180151581146108a857600080fd5b818103818111156107a4576107a46136a3565b60e060020a634e487b710260009081526031600452602490fd5b6000815480845260208401935082600052602060002060005b82811015613817578154600160a060020a03168652602090950194600191820191016137f0565b5093949350505050565b600160a060020a038616815284602082015283604082015282606082015260a06080820152600061385560a08301846137d7565b979650505050505050565b600160a060020a039390931683526020830191909152604082015260600190565b60006020828403121561389357600080fd5b5051919050565b6000600182016138ac576138ac6136a3565b5060010190565b600160a060020a0388168152866020820152856040820152841515606082015283608082015260e060a082015260006138ef60e08301856137d7565b90508260c083015298975050505050505050565b6000825161391581846020870161330d565b9190910192915050565b600160a060020a0384168152606060208201819052600090613943908301856137d7565b9050826040830152949350505050565b601f82111561399a578060005260206000206020601f8501048101602085101561397a5750805b6020601f850104820191505b818110156121e25760008155600101613986565b505050565b600890910260020a60001904191690565b60006139bc838361399f565b83600202811791505092915050565b81516001604060020a038111156139e4576139e46134f8565b6139f8816139f284546136d0565b84613953565b6020601f821160018114613a265760008315613a145750848201515b613a1e84826139b0565b8555506121e2565b600084815260208120601f198516915b82811015613a565787850151825560209485019460019092019101613a36565b5084821015613a745783870151613a70601f87168261399f565b8255505b50505050600202600101905550565b6001815b6001841115613abd57808504811115613aa257613aa26136a3565b6001841615613ab057908102905b6002909304928002613a87565b935093915050565b600082613ad4575060016107a4565b81613ae1575060006107a4565b8160018114613af75760028114613b0157613b1e565b60019150506107a4565b60ff841115613b1257613b126136a3565b8360020a9150506107a4565b5060208310610133831016604e8410600b8410161715613b41575081810a6107a4565b613b4e6000198484613a83565b8060001904821115613b6257613b626136a3565b029392505050565b60006108a88383613ac5565b80516001605060020a03811681146132d457600080fd5b600080600080600060a08688031215613ba557600080fd5b613bae86613b76565b60208701516040880151606089015192975090955093509150613bd360808701613b76565b90509295509295909350565b600060208284031215613bf157600080fd5b815160ff811681146108a857600080fdfea264697066735822122020c6036edafae824987b0b775b3483d36eaecc3ddb7795bc12af44fddc1f8f9664736f6c634300081a0033",
  "immutableReferences": {},
  "source": "// SPDX-License-Identifier: MIT\npragma solidity >=0.4.22 <0.9.0;\nimport \"./LendingHelper.sol\";\n\ncontract LendingAndBorrowing is Ownable {\n    using LendingHelper for address;\n\n    address[] public lenders;\n    address[] public borrowers;\n\n    // {tokenAddres: {userAddr : amount}}\n    mapping(address => mapping(address => uint256)) public tokensLentAmount;\n    mapping(address => mapping(address => uint256)) public tokensBorrowedAmount;\n\n    // {noOfTokensLent[1,2,3,4]: {userAddr: tokenAddres}}\n    mapping(uint256 => mapping(address => address)) public tokensLent;\n    mapping(uint256 => mapping(address => address)) public tokensBorrowed;\n\n    mapping(address => address) public tokenToPriceFeed;\n\n    event Withdraw(\n        address sender,\n        uint256 amount,\n        uint256 tokenToWithdrawInDollars,\n        uint256 availableToWithdraw,\n        uint256 totalAmountLentInDollars,\n        uint256 larTokenToRemove\n    );\n    event PayDebt(\n        address sender,\n        int256 index,\n        uint256 tokenAmountBorrowed,\n        uint256 totalTokenAmountToCollectFromUser,\n        address[] borrowers\n    );\n    event Borrow(\n        address sender,\n        uint256 amountInDollars,\n        uint256 totalAmountAvailableForBorrowInDollars,\n        bool userPresent,\n        int256 userIndex,\n        address[] borrowers,\n        uint256 currentUserTokenBorrowedAmount\n    );\n    event Supply(address sender,address[] lenders,uint256 currentUserTokenLentAmount);\n    event WithdrawTesting(address sender,uint256 tokentoWithdrawInDollars,uint256 availableToWithdraw);\n    event BorrowTesting1(address sender,uint256 amountInDollars,uint256 totalAmountAvailableForBorrowInDollars);\n    event BorrowTesting2(address sender, uint256 balance, uint256 amount);\n    event RepayTesting1(address sender, int256 index);\n    event RepayTesting2(address sender, uint256 tokenBorrowed);\n\n    struct Token {\n        address tokenAddress;\n        uint256 LTV;\n        uint256 stableRate;\n        string name;\n    }\n\n    //Array of Struct Token [Dai, Weth, Fau, Link]\n    Token[] public tokensForLending;\n    Token[] public tokensForBorrowing;\n\n    IERC20 public larToken;\n\n    uint256 public noOfTokensLent = 0;\n    uint256 public noOfTokensBorrowed = 0;\n\n    constructor(address _token) {\n        larToken = IERC20(_token);\n    }\n\n    function addTokensForLending(\n        string memory name,\n        address tokenAddress,\n        uint256 LTV,\n        uint256 borrowStableRate\n    ) external onlyOwner {\n        Token memory token = Token(tokenAddress, LTV, borrowStableRate, name);\n\n        if (!tokenIsAlreadyThere(token,tokensForLending)) {\n            tokensForLending.push(token);\n        }\n    }\n\n    function addTokensForBorrowing(\n        string memory name,\n        address tokenAddress,\n        uint256 LTV,\n        uint256 borrowStableRate\n    ) external onlyOwner {\n        Token memory token = Token(tokenAddress, LTV, borrowStableRate, name);\n\n        if (!tokenIsAlreadyThere(token,tokensForBorrowing)) {\n            tokensForBorrowing.push(token);\n        }\n    }\n\n    function addTokenToPriceFeedMapping(address tokenAddress, address tokenToUsdPriceFeed) external onlyOwner {\n        tokenToPriceFeed[tokenAddress] = tokenToUsdPriceFeed;\n    }\n\n    function getLendersArray() public view returns (address[] memory) {\n        return lenders;\n    }\n\n    function getBorrowersArray() public view returns (address[] memory) {\n        return borrowers;\n    }\n\n    function getTokensForLendingArray() public view returns (Token[] memory) {\n        return tokensForLending;\n    }\n\n    function getTokensForBorrowingArray() public view returns (Token[] memory) {\n        return tokensForBorrowing;\n    }\n\n    function lend(address tokenAddress, uint256 amount) external payable {\n        require(tokenIsAllowed(tokenAddress, tokensForLending));\n        require(amount > 0);\n\n        IERC20 token = IERC20(tokenAddress);\n\n        require(token.balanceOf(msg.sender) >= amount);\n\n        token.transferFrom(msg.sender, address(this), amount);\n\n        (bool userPresent, int256 userIndex) = msg.sender.isUserPresentIn(lenders);\n\n        if (userPresent) {\n            updateUserTokensBorrowedOrLent(tokenAddress,amount,userIndex,\"lenders\");\n        } else {\n            lenders.push(msg.sender);\n            tokensLentAmount[tokenAddress][msg.sender] = amount;\n            tokensLent[noOfTokensLent++][msg.sender] = tokenAddress;\n        }\n\n         // Send some tokens to the user equivalent to the token amount lent.\n        larToken.transfer(msg.sender, getAmountInDollars(amount, tokenAddress));\n\n        emit Supply(msg.sender,lenders,tokensLentAmount[tokenAddress][msg.sender]);\n    }\n\n    function borrow(uint256 amount, address tokenAddress) external {\n        require(tokenIsAllowed(tokenAddress, tokensForBorrowing));\n        require(amount > 0);\n\n        uint256 totalAmountAvailableForBorrowInDollars = getUserTotalAmountAvailableForBorrowInDollars(msg.sender);\n        uint256 amountInDollars = getAmountInDollars(amount, tokenAddress);\n\n        emit BorrowTesting1(msg.sender,amountInDollars,totalAmountAvailableForBorrowInDollars);\n\n        require(amountInDollars <= totalAmountAvailableForBorrowInDollars);\n\n        IERC20 token = IERC20(tokenAddress);\n\n        emit BorrowTesting2(msg.sender, token.balanceOf(address(this)), amount);\n\n        require(token.balanceOf(address(this)) >= amount,\"Insufficient Token\");\n\n        token.transfer(msg.sender, amount);\n\n        //Library function isUserPresentIn\n        (bool userPresent, int256 userIndex) = msg.sender.isUserPresentIn(borrowers);\n\n        if (userPresent) {\n          updateUserTokensBorrowedOrLent(tokenAddress,amount,userIndex,\"borrowers\");\n        } else {\n            borrowers.push(msg.sender);\n            tokensBorrowedAmount[tokenAddress][msg.sender] = amount;\n            tokensBorrowed[noOfTokensBorrowed++][msg.sender] = tokenAddress;\n        }\n\n        emit Borrow(\n            msg.sender,\n            amountInDollars,\n            totalAmountAvailableForBorrowInDollars,\n            userPresent,\n            userIndex,\n            borrowers,\n            tokensBorrowedAmount[tokenAddress][msg.sender]\n        );\n    }\n\n    function payDebt(address tokenAddress, uint256 amount) external {\n        require(amount > 0);\n\n        int256 index = msg.sender.indexOf(borrowers);\n\n        emit RepayTesting1(msg.sender, index);\n        require(index >= 0);\n\n        uint256 tokenBorrowed = tokensBorrowedAmount[tokenAddress][msg.sender];\n\n        emit RepayTesting2(msg.sender, tokenBorrowed);\n\n        require(tokenBorrowed > 0);\n        IERC20 token = IERC20(tokenAddress);\n\n        token.transferFrom(msg.sender,address(this),amount + interest(tokenAddress, tokenBorrowed));\n\n        tokensBorrowedAmount[tokenAddress][msg.sender] -= amount;\n\n        // Checking if all total amount borrowed by a user = 0, then remove the user from borrowers list;\n        if (getTotalAmountBorrowedInDollars(msg.sender) == 0) {\n            borrowers[uint256(index)] = borrowers[borrowers.length - 1];\n            borrowers.pop();\n        }\n\n        emit PayDebt(\n            msg.sender,\n            index,\n            tokenBorrowed,\n            amount + interest(tokenAddress, tokenBorrowed),\n            borrowers\n        );\n    }\n\n    function withdraw(address tokenAddress, uint256 amount) external {\n        require(amount > 0);\n\n        require(msg.sender.indexOf(lenders) >= 0);\n\n        IERC20 token = IERC20(tokenAddress);\n\n        uint256 tokenToWithdrawInDollars = getAmountInDollars(amount,tokenAddress);\n        uint256 availableToWithdraw = getTokenAvailableToWithdraw(msg.sender);\n\n        uint totalTokenSuppliedInContract = getTotalTokenSupplied(tokenAddress);\n        uint totalTokenBorrowedInContract = getTotalTokenBorrowed(tokenAddress);\n\n        require(amount <= (totalTokenSuppliedInContract - totalTokenBorrowedInContract));\n\n        emit WithdrawTesting(msg.sender,tokenToWithdrawInDollars,availableToWithdraw);\n\n        require(tokenToWithdrawInDollars <= availableToWithdraw);\n\n        uint256 larTokenToRemove = getAmountInDollars(amount, tokenAddress);\n        uint256 larTokenBalance = larToken.balanceOf(msg.sender);\n\n        if (larTokenToRemove <= larTokenBalance) {\n            larToken.transferFrom(msg.sender, address(this), larTokenToRemove);\n        } else {\n            larToken.transferFrom(msg.sender, address(this), larTokenBalance);\n        }\n\n        token.transfer(msg.sender, amount);\n\n        tokensLentAmount[tokenAddress][msg.sender] -= amount;\n\n        emit Withdraw(\n            msg.sender,\n            amount,\n            tokenToWithdrawInDollars,\n            availableToWithdraw,\n            getTotalAmountLentInDollars(msg.sender),\n            larTokenToRemove\n        );\n\n        if (getTotalAmountLentInDollars(msg.sender) <= 0) {\n            lenders[uint256(msg.sender.indexOf(lenders))] = lenders[lenders.length - 1];\n            lenders.pop();\n        }\n    }\n\n    function getTokenAvailableToWithdraw(address user)public view returns (uint256){\n\n        uint256 totalAmountBorrowedInDollars = getTotalAmountBorrowedInDollars(user);\n\n        uint remainingCollateral = 0;\n\n        if (totalAmountBorrowedInDollars > 0 ){\n            remainingCollateral = getRemainingCollateral(user);\n        }else{\n            remainingCollateral = getTotalAmountLentInDollars(user);\n        }\n\n        if (remainingCollateral < totalAmountBorrowedInDollars){return 0;}\n\n        return remainingCollateral - totalAmountBorrowedInDollars;\n    }\n\n    function getRemainingCollateral(address user)public view returns (uint256){\n           uint256 remainingCollateral = 0;\n           for (uint256 i = 0; i < noOfTokensLent; i++)\n           {\n               address userLentTokenAddressFound = tokensLent[i][user];\n\n               if (userLentTokenAddressFound !=0x0000000000000000000000000000000000000000)\n               {\n                 uint256 tokenAmountLentInDollars = getAmountInDollars(\n                   tokensLentAmount[userLentTokenAddressFound][user],\n                   userLentTokenAddressFound);\n\n                 remainingCollateral += (tokenAmountLentInDollars * getTokenFrom(userLentTokenAddressFound).LTV) / 10 ** 18;\n               }\n           }\n           return remainingCollateral;\n       }\n\n       function getTotalAmountBorrowedInDollars(address user) public view returns (uint256){\n           uint256 totalAmountBorrowed = 0;\n\n           for (uint256 i = 0; i < noOfTokensBorrowed; i++) {\n               address userBorrowedTokenAddressFound = tokensBorrowed[i][user];\n\n               if (userBorrowedTokenAddressFound != 0x0000000000000000000000000000000000000000)\n               {\n                  ///tokenAmountBorrowed is tokensBorrowedAmount[userBorrowedTokenAddressFound][user];\n\n                   uint256 tokenAmountBorrowedInDollars = getAmountInDollars(\n                       tokensBorrowedAmount[userBorrowedTokenAddressFound][user],\n                       userBorrowedTokenAddressFound\n                   );\n\n                   totalAmountBorrowed += tokenAmountBorrowedInDollars;\n               }\n           }\n           return totalAmountBorrowed;\n       }\n\n       function getTotalAmountLentInDollars(address user) public view returns (uint256){\n           uint256 totalAmountLent = 0;\n           for (uint256 i = 0; i < noOfTokensLent; i++) {\n               if (tokensLent[i][user] !=0x0000000000000000000000000000000000000000)\n               {\n                   uint256 tokenAmountLent = tokensLentAmount[tokensLent[i][user]][user];\n\n                   uint256 tokenAmountLentInDollars = getAmountInDollars(tokenAmountLent,tokensLent[i][user]);\n\n                   totalAmountLent += tokenAmountLentInDollars;\n               }\n           }\n           return totalAmountLent;\n       }\n\n       function interest(address tokenAddress, uint256 tokenBorrowed) public view returns (uint256){\n           return (tokenBorrowed * getTokenFrom(tokenAddress).stableRate) / 10**18;\n       }\n\n       function getTokenFrom(address tokenAddress) public view returns (Token memory){\n           Token memory token;\n           for (uint256 i = 0; i < tokensForBorrowing.length; i++) {\n               if (tokensForBorrowing[i].tokenAddress == tokenAddress) {\n                   token = tokensForBorrowing[i];\n                   break;\n               }\n           }\n           return token;\n       }\n\n       function getUserTotalAmountAvailableForBorrowInDollars(address user) public view returns (uint256){\n          // uint256 totalAvailableToBorrow = 0;\n\n          uint256 userTotalCollateralToBorrow = 0;\n          uint256 userTotalCollateralAlreadyBorrowed = 0;\n\n          for (uint256 i = 0; i < lenders.length; i++) {\n              address currentLender = lenders[i];\n              if (currentLender == user) {\n                  for (uint256 j = 0; j < tokensForLending.length; j++) {\n                      Token memory currentTokenForLending = tokensForLending[j];\n                      uint256 currentTokenLentAmount = tokensLentAmount[currentTokenForLending.tokenAddress][user];\n                      uint256 currentTokenLentAmountInDollar = getAmountInDollars(\n                          currentTokenLentAmount,\n                          currentTokenForLending.tokenAddress\n                      );\n                      uint256 availableInDollar = (currentTokenLentAmountInDollar * currentTokenForLending.LTV) / 10**18;\n                      userTotalCollateralToBorrow += availableInDollar;\n                  }\n              }\n          }\n\n          for (uint256 i = 0; i < borrowers.length; i++) {\n              address currentBorrower = borrowers[i];\n              if (currentBorrower == user) {\n                  for (uint256 j = 0; j < tokensForBorrowing.length; j++) {\n                      Token memory currentTokenForBorrowing = tokensForBorrowing[j];\n                      uint256 currentTokenBorrowedAmount = tokensBorrowedAmount[currentTokenForBorrowing.tokenAddress][user];\n                      uint256 currentTokenBorrowedAmountInDollar = getAmountInDollars(\n                              (currentTokenBorrowedAmount),\n                              currentTokenForBorrowing.tokenAddress\n                          );\n\n                      userTotalCollateralAlreadyBorrowed += currentTokenBorrowedAmountInDollar;\n                  }\n              }\n          }\n\n          return userTotalCollateralToBorrow - userTotalCollateralAlreadyBorrowed;\n      }\n\n\n       function tokenIsAllowed(address tokenAddress, Token[] memory tokenArray) private pure returns (bool){\n           if (tokenArray.length > 0) {\n               for (uint256 i = 0; i < tokenArray.length; i++) {\n                   if (tokenArray[i].tokenAddress == tokenAddress) {\n                       return true;\n                   }\n               }\n           }\n           return false;\n       }\n\n       function tokenIsAlreadyThere(Token memory token, Token[] memory tokenArray) private pure returns (bool){\n           if (tokenArray.length > 0) {\n               for (uint256 i = 0; i < tokenArray.length; i++) {\n                   if (tokenArray[i].tokenAddress == token.tokenAddress) {\n                       return true;\n                   }\n               }\n           }\n           return false;\n       }\n\n       function getAmountInDollars(uint256 amount, address tokenAddress) public view returns (uint256){\n          (uint256 dollarPerToken,uint256 decimals) = oneTokenEqualsHowManyDollars(tokenAddress);\n          uint256 totalAmountInDollars = (amount * dollarPerToken) / (10**decimals);\n          return totalAmountInDollars;\n        }\n\n      function oneTokenEqualsHowManyDollars(address tokenAddress) public view returns (uint256, uint256){\n            address tokenToUsd = tokenToPriceFeed[tokenAddress];\n            AggregatorV3Interface priceFeed = AggregatorV3Interface(tokenToUsd);\n\n            (, int256 price, , , ) = priceFeed.latestRoundData();\n\n            uint256 decimals = priceFeed.decimals();\n\n            return (uint256(price), decimals);\n        }\n\n       function updateUserTokensBorrowedOrLent(\n         address tokenAddress,\n         uint256 amount,\n         int256 userIndex,\n         string memory lendersOrBorrowers)\n         private {\n           if ( keccak256(abi.encodePacked(lendersOrBorrowers)) == keccak256(abi.encodePacked(\"lenders\"))) {\n               address currentUser = lenders[uint256(userIndex)];\n\n               if (hasLentOrBorrowedToken(currentUser, tokenAddress, noOfTokensLent,\"tokensLent\")) {\n                   tokensLentAmount[tokenAddress][currentUser] += amount;\n               } else {\n                   tokensLent[noOfTokensLent++][currentUser] = tokenAddress;\n                   tokensLentAmount[tokenAddress][currentUser] = amount;\n               }\n           } else if (keccak256(abi.encodePacked(lendersOrBorrowers)) == keccak256(abi.encodePacked(\"borrowers\"))) {\n               address currentUser = borrowers[uint256(userIndex)];\n\n               if (hasLentOrBorrowedToken(currentUser,tokenAddress,noOfTokensBorrowed,\"tokensBorrowed\")) {\n                   tokensBorrowedAmount[tokenAddress][currentUser] += amount;\n               } else {\n                   tokensBorrowed[noOfTokensBorrowed++][currentUser] = tokenAddress;\n                   tokensBorrowedAmount[tokenAddress][currentUser] = amount;\n               }\n           }\n       }\n\n       function hasLentOrBorrowedToken(\n           address currentUser,\n           address tokenAddress,\n           uint256 noOfTokenslentOrBorrowed,\n           string memory _tokensLentOrBorrowed\n       ) public view returns (bool) {\n           if (noOfTokenslentOrBorrowed > 0) {\n               if (keccak256(abi.encodePacked(_tokensLentOrBorrowed)) == keccak256(abi.encodePacked(\"tokensLent\"))) {\n                   for (uint256 i = 0; i < noOfTokensLent; i++) {\n                       address tokenAddressFound = tokensLent[i][currentUser];\n                       if (tokenAddressFound == tokenAddress) {\n                           return true;\n                       }\n                   }\n               } else if (keccak256(abi.encodePacked(_tokensLentOrBorrowed)) == keccak256(abi.encodePacked(\"tokensBorrowed\"))) {\n                   for (uint256 i = 0; i < noOfTokensBorrowed; i++) {\n                       address tokenAddressFound = tokensBorrowed[i][currentUser];\n                       if (tokenAddressFound == tokenAddress) {\n                           return true;\n                       }\n                   }\n               }\n           }\n           return false;\n       }\n\n\n\n       function getTotalTokenSupplied(address tokenAddres) public view returns (uint256){\n           uint256 totalTokenSupplied = 0;\n           if (lenders.length > 0) {\n               for (uint256 i = 0; i < lenders.length; i++) {\n                   totalTokenSupplied += tokensLentAmount[tokenAddres][lenders[i]];\n               }\n           }\n\n           return totalTokenSupplied;\n       }\n\n       function getTotalTokenBorrowed(address tokenAddress) public view returns (uint256){\n           uint256 totalTokenBorrowed = 0;\n           if (borrowers.length > 0) {\n               for (uint256 i = 0; i < borrowers.length; i++) {\n                   totalTokenBorrowed += tokensBorrowedAmount[tokenAddress][borrowers[i]];\n               }\n           }\n           return totalTokenBorrowed;\n       }\n\n}\n",
  "sourcePath": "/var/www/html/Defi-Lending-Borrowing/contracts/LendingAndBorrowing.sol",
  "compiler": {
    "name": "solc",
    "version": "0.8.26+commit.8a97fa7a.Emscripten.clang"
  },
  "schemaVersion": "3.4.16",
  "updatedAt": "2024-05-27T17:30:16.930Z",
  "devdoc": {
    "kind": "dev",
    "methods": {
      "owner()": {
        "details": "Returns the address of the current owner."
      },
      "renounceOwnership()": {
        "details": "Leaves the contract without owner. It will not be possible to call `onlyOwner` functions. Can only be called by the current owner. NOTE: Renouncing ownership will leave the contract without an owner, thereby disabling any functionality that is only available to the owner."
      },
      "transferOwnership(address)": {
        "details": "Transfers ownership of the contract to a new account (`newOwner`). Can only be called by the current owner."
      }
    },
    "version": 1
  },
  "userdoc": {
    "kind": "user",
    "methods": {},
    "version": 1
  }
}